:1000000067C1000096C1000094C1000092C10000C9
:1000100090C100008EC100008CC100008AC10000A8
:1000200088C1000086C1000084C1000082C10000B8
:1000300080C100007EC100007CC100007AC10000C8
:1000400078C1000076C1000074C1000072C10000D8
:1000500070C100006EC100006CC100000C948817D4
:1000600068C100000C94C00A0C94970A62C1000099
:1000700060C100005EC100005CC100005AC1000008
:1000800058C1000056C1000054C1000052C1000018
:1000900050C100004EC100004CC10000CEC600009F
:1000A00048C1000046C1000044C1000042C1000038
:1000B00040C100003EC100003CC100003AC1000048
:1000C00038C1000036C1000034C1000032C1000058
:1000D00030C100002EC100002CC100002AC1000068
:1000E00028C1000099169C168B168F169316D316EE
:1000F000A016A416AA16AE16B216B816BC16C016CE
:10010000D316C616CA16CE16084AD73B3BCE016E8A
:1001100084BCBFFDC12F3D6C74319ABD56833DDA5E
:100120003D00C77F11BED9E4BB4C3E916BAAAABE6D
:10013000000000803F07634236B79BD8A71A396892
:100140005618AEBAAB558C1D3CB7CC5763BD6DEDA0
:10015000FD753EF6177231BF000000803F080000B9
:1001600000BE922449123EABAAAA2ABECDCCCC4CEA
:100170003E00000080BEABAAAAAA3E00000000BF5D
:10018000000000803F0000000000084178D3BB431E
:1001900087D1133D190E3CC3BD4282AD2B3E68ECA6
:1001A0008276BED98FE1A93E4C80EFFFBE01C4FF2D
:1001B0007F3F0000000000007C3C3E5E2B3D3F2F57
:1001C0005B5D3B2C2A225C000000220025002800F9
:1001D0002B002E003100340002010000050108014F
:1001E0000B0100002100240027002A002D00300010
:1001F000330001010000040107010A01050505059E
:10020000070508080808020202020A0A080804048E
:1002100004040101010101010101030303030303BC
:100220000303040707070C0C0C0C0C0C0C0C02024B
:10023000020206060606060606060B0B0B0B0B0B48
:100240000B0B0102102020080810204010204080D5
:10025000020102010804020101020408102040808A
:100260008040201008040201800402018040201018
:100270000804020108040201010204081020408061
:10028000010204081020408000000A0B02090C0D36
:100290000E08070304010000000000000000000039
:1002A000000000000000000000000000000000004E
:1002B000000000001211100000000000000000000B
:1002C00000000000000000000000000000004221CB
:1002D00011241FBECFEFD1E2DEBFCDBF00E00CBFC7
:1002E00013E0A0E0B2E0E8EDF0E500E00BBF02C0F3
:1002F00007900D92A034B107D9F727E0A0E4B3E04E
:1003000001C01D92A237B207E1F711E0C8E6D1E0C3
:1003100000E006C021970109802FFE010E94C9223A
:10032000C736D10780E00807A9F70E94D2170C94BE
:100330006A2866CE0895E091A2058091A105E8178C
:1003400030F4F0E0ED55FA4F808190E008958FEFA2
:100350009FEF08959091A2058091A105981750F400
:10036000E92FF0E0ED55FA4F208130E09F5F909348
:10037000A20502C02FEF3FEFC90108958091A105AA
:1003800090E02091A205821B9109089585ED80934C
:10039000BC008091BC0084FDFCCF1092E90508955B
:1003A00040917303262F30E0240F311D2132310597
:1003B000DCF42091E9052430C9F4FC0180E090E0F0
:1003C000861758F4309173032191DC01AF5ABC4F6A
:1003D000A30FB11D2C930196F3CF80917303680F87
:1003E0006093730380E0089581E0089582E00895AA
:1003F000CF92DF92EF92FF920F931F93CF93DF93F1
:100400007C01262F972F8A018091EA05882391F09D
:10041000C62FD72F6E01C40ED51ECC15DD0569F091
:100420006991D701ED91FC910190F081E02DC70118
:100430001995F3CF642F822FB3DFC801DF91CF91DD
:100440001F910F91FF90EF90DF90CF900895CF9381
:10045000DF931F92CDB7DEB769832091EA0522238F
:10046000D1F020910C06203240F021E030E0FC0178
:100470003383228380E090E014C08091EB05E82F65
:10048000F0E0E451FA4F998190838F5F8093EB0500
:1004900080930C0604C061E0CE01019681DF81E00B
:1004A00090E00F90DF91CF9108958F929F92AF923D
:1004B000BF92CF92DF92EF92FF920F931F93CF9351
:1004C000DF9300D01F92CDB7DEB77C0180E2689F3A
:1004D00060011124960121563C4FD9011B969C9135
:1004E000917121F0842F827409F097C0142FF701C5
:1004F000628B8091000290910102A0910202B09162
:10050000030286879787A08BB18BF601E156FC4FDB
:100510004489558960E070E0BA0155274427D70126
:1005200057964D935D936D937C935A97828D938DDF
:10053000A0E0B0E0482B592B6A2B7B2BD7015796B4
:100540004D935D936D937C935A97D9011B968C9133
:10055000887159F4848D958DA68DB78DF701838BA5
:10056000948BA58BB68B81E012C0803109F055C009
:1005700097012D5E3F4FD7015B968D919C915C97C3
:100580000E94E50C882309F448C084E0F7018583C4
:10059000812F8F70D70114968C931497F7011682D0
:1005A0001782108611861A961D921D921D921C921A
:1005B0001D9716FF34C015968C91813071F511FF8F
:1005C0002CC0F7014389548965897689452B462BD0
:1005D000472B09F461C040E050E0BA01C7010E9416
:1005E000440F8823D1F0F7018788908CA18CB28CBE
:1005F000C38CD48C82E090E0A0E0B0E0F601808370
:100600009183A283B3839E012F5F3F4FB501A40165
:10061000C6010E94620C811104C080E03DC081E0EF
:100620003BC000E010E09801B501A401C6010E94A2
:10063000C30B882391F389809A80AB80BC80D6015C
:1006400057968C91803129F088EF9FEFAFEFBFE094
:1006500004C088EF9FEFA0E0B0E088169906AA06D4
:10066000BB0688F2D70157961D921D921D921C92CF
:100670005A97F701138A148A158A168A848180682A
:100680008483C7010E94010F882339F240E050E0C3
:10069000BA01C7010E94440F0F900F900F900F9066
:1006A000DF91CF911F910F91FF90EF90DF90CF904E
:1006B000BF90AF909F908F900895CF93DF93EC0100
:1006C0000E94010F882311F01D8281E0DF91CF91FC
:1006D00008953F924F925F926F927F928F929F9276
:1006E000AF92BF92CF92DF92EF92FF920F931F9340
:1006F000CF93DF93CDB7DEB72C970FB6F894DEBF5C
:100700000FBECDBF5C01DC015B968D909C905C9729
:100710001696CD90DD90ED90FC901997C114D10400
:10072000E104F10439F0BFEFCB1ADB0AEB0AFB0A54
:10073000312C07C0F401C080D180E280F3803324E3
:100740003394F40181859285A385B4859C01AD0124
:100750002F5F3F4F4F4F5F4F29873A874B875C870B
:10076000260137011D821E821F821886F4018185B1
:100770009285A385B4852D813E814F8158852817A8
:1007800039074A075B0708F061C089859A85AB8500
:10079000BC858C159D05AE05BF0550F482E0C82EC2
:1007A000D12CE12CF12C92E0492E512C612C712C92
:1007B0009E012F5F3F4FB701A601C4010E94620C4A
:1007C000882309F443C089819A81AB81BC81892B3C
:1007D0008A2B8B2B41F0260137019FEF491A590ACA
:1007E000690A790A05C0C414D504E604F70491F037
:1007F0002D813E814F8158852F5F3F4F4F4F5F4F77
:100800002D833E834F8358873FEFC31AD30AE30AF1
:10081000F30AACCF0FEF1FEF2FEF3FE0B301A201C0
:10082000C401B1D7882391F0D50116964D915D9101
:100830006D917C911997411551056105710541F044
:1008400093018201C4019FD7811102C080E02AC0B8
:10085000D50116964D925D926D927C921997332038
:1008600051F0D301C2010196A11DB11DF401808395
:100870009183A283B383F5018789908DA18DB28D79
:10088000892B8A2B8B2B69F4D50157964D925D925B
:100890006D927C925A9714968C9114978068149656
:1008A0008C9381E02C960FB6F894DEBF0FBECDBFBF
:1008B000DF91CF911F910F91FF90EF90DF90CF903C
:1008C000BF90AF909F908F907F906F905F904F9070
:1008D0003F9008958FB7F894809199038FBF089542
:1008E00061E0FC0184810E946A1680919803811165
:1008F0001092980308958EBD00000DB407FEFDCF41
:100900008EB508958FEFF7CF0F931F93CF93DF939B
:10091000EB010E940C178B01F5DF8F3F49F00E941D
:100920000C17601B710B6C177D07B0F380E001C0E2
:1009300081E0DF91CF911F910F910895CF93DF93C5
:10094000EC018E81882379F08F8198859C012F5F3F
:100950003F4F38872F838230924010F4D3DFF4CF9B
:10096000CE01BEDF1E82DF91CF9108958CBD9DBD6B
:100970000895CF93DF93EC0180919803811108C013
:1009800081E0809398038091F3069091F406EEDF66
:1009900060E08C81DF91CF910C946A16CF92DF9248
:1009A000FF920F931F93CF93DF9300D01F92CDB789
:1009B000DEB76C01F62E29833A834B835C83BEDF5E
:1009C000C601D7DF6CE271E0C6019EDF8F2D806427
:1009D00092DF08E110E05C814B813A812981DA01E4
:1009E000C901002E04C0B695A795979587950A94DE
:1009F000D2F729833A834B835C837DDF085011094A
:100A000029813A814B815C81083F8FEF180739F7C4
:100A1000FF2029F0E8E0FE1204C087E803C085E962
:100A200001C08FEF68DF10E06DDFF601828787FF7E
:100A300004C01F3F11F01F5FF7CF0F900F900F9072
:100A40000F90DF91CF911F910F91FF90DF90CF908A
:100A50000895AF92BF92CF92DF92EF92FF920F93E1
:100A60001F93CF93DF93EC016901C801820F931F9D
:100A70008130924008F06AC08E81882371F08881AD
:100A80009981AA81BB81481759076A077B0729F416
:100A90008F819885C816D90698F5488359836A834B
:100AA0007B838B85833039F089E0440F551F661FA7
:100AB000771F8A95D1F79A01AB0161E1CE016EDF14
:100AC000882319F083E08D8341C00E940C175B01DD
:100AD00019DF8A878F3F49F40E940C176A197B0936
:100AE0006D327140A8F38FE003C08E3F29F08DE096
:100AF0008D83CE01F5DE2AC018861F8281E08E83A9
:100B00008F8198858C159D0538F4FCDE8F81988542
:100B1000019698878F83F4CF6701E00EF11ECE1403
:100B2000DF0429F0EFDEF60181936F01F8CF8F81AA
:100B30009885080F191F18870F838985882319F056
:100B40000115124038F0CE01F9DE04C0CE01C8DE36
:100B500080E001C081E0DF91CF911F910F91FF9064
:100B6000EF90DF90CF90BF90AF9008952F923F927B
:100B70004F925F926F927F928F929F92AF92BF92AD
:100B8000CF92DF92EF92FF920F931F93CF93DF9359
:100B90001F921F92CDB7DEB7FC018581882309F42F
:100BA000D6C0848180FFD3C021E02A834389548941
:100BB0006589768982859385A485B5854817590707
:100BC0006A077B0709F41A826F013A81832F90E04C
:100BD000DE0111964D013F01B6E06B0E711C892BB1
:100BE00009F47CC0D6011A964D915D916D917C916E
:100BF0001D975A01B1E0BB22F60125811A012B0194
:100C000089E056944794379427948A95D1F7838D39
:100C1000948D223061F4FC01828D938DA48DB58D6D
:100C2000BC01CD01620D731D841D951D44C0DC0106
:100C300014961C9111501221A114B104C9F4111180
:100C400017C0452B462B472B51F4F6018789908D11
:100C5000A18DB28D86839783A087B18709C0468115
:100C600057816085718593012DD6882309F46FC063
:100C7000F601238D348D86819781A085B1850297F9
:100C8000A109B109AC01BD01F901058404C0440FFB
:100C9000551F661F771F0A94D2F786859785A0890E
:100CA000B189840F951FA61FB71FBC01CD01610F2D
:100CB000711D811D911DD60114962C9126FF14C023
:100CC0000091000210910102209102023091030272
:100CD000601771078207930749F506C0FA81FF2361
:100CE000B1F1898190E035C040E006D5882379F1E3
:100CF000F501E156FC4FD401CF010196E817F90741
:100D000019F021912D93FACFEFEF8E1A9E0AF6017A
:100D100082859385A485B5850196A11DB11D828725
:100D20009387A487B58780E090E059CF740101E0F4
:100D300010E09501AB01BC0180919F059091A00549
:100D400088DE882321F0BFEF8B1A9B0AE0CF8FEF5C
:100D50009FEF0F900F90DF91CF911F910F91FF9018
:100D6000EF90DF90CF90BF90AF909F908F907F904B
:100D70006F905F904F903F902F900895EF92FF9269
:100D80000F931F93CF93DF93EC0179014115510528
:100D90006105710511F482E134C08B85833039F02F
:100DA00089E0440F551F661F771F8A95D1F79A0176
:100DB000AB0168E1CE01F2DD882311F084E021C0AF
:100DC0008EEF99DD87018EEFF81AF80181918F017E
:100DD00092DD0E151F05C9F78FEF8DDD8FEF8BDDCF
:100DE00091DD8A878F71853029F081E18D83CE0175
:100DF00077DD08C068E572E0CE0186DD811106C0AE
:100E000085E18D83CE016CDD80E010C020E030E014
:100E1000A9016DE0CE01C2DD811103C073DD88231D
:100E200011F084E1EECFCE015BDD81E0DF91CF9167
:100E30001F910F91FF90EF9008951F920F920FB6A0
:100E40000F9211240BB60F922F933F934F935F9302
:100E50006F937F938F939F93AF93BF93EF93FF9382
:100E60008091B900887F803609F49CC068F588328B
:100E700009F45BC090F4803109F454C038F488233D
:100E800009F4F6C0883009F44DC0F5C0883109F482
:100E90004CC0803209F45DC0EEC0803409F468C0F3
:100EA00048F4803309F455C0883309F0E4C08093D6
:100EB000E705D8C0803509F44FC0883509F45DC016
:100EC000883409F0D8C0D6C0883909F4C7C0A8F45E
:100ED000883709F467C038F4883609F463C080376E
:100EE00009F460C0C8C0883809F4B8C0803909F472
:100EF0005FC0803809F0BFC05BC0803B09F486C08A
:100F000038F4803A09F466C0883A09F47FC0B3C067
:100F1000803C09F4A7C0883C09F4A4C0883B09F4CC
:100F20008AC0A9C08091C40510C09091E605809147
:100F3000E505981770F5E091E60581E08E0F809346
:100F4000E605F0E0EB53FA4F80818093BB0085EC1F
:100F500086C08093E7058EC0E091E60581E08E0FA4
:100F60008093E6058091BB00F0E0EB53FA4F80835D
:100F70009091E6058091E5056EC0E091E60581E07F
:100F80008E0F8093E6058091BB00F0E0EB53FA4FA3
:100F900080838091E80581116DC081E08093C30555
:100FA00084EA61C083E08093E90510929703CFCF74
:100FB00080919703803208F051C0E091970381E05F
:100FC0008E0F809397038091BB00F0E0E958FC4FAF
:100FD0008083BDCF85EC8093BC001092E9058091A1
:100FE0009703803230F4E0919703F0E0E958FC4F2A
:100FF00010826091970370E0E0917503F0917603A1
:1010000087E793E019951092970335C084E08093A9
:10101000E9051092740310927303E0917103F0914B
:101020007203199580917303811105C081E080934B
:10103000730310925103E091740381E08E0F80934B
:101040007403F0E0EF5AFC4F80818093BB009091D5
:10105000740380917303981708F479CF85E880931F
:10106000BC0009C085EC8093BC001092E90503C068
:101070001092E7058BD9FF91EF91BF91AF919F91AE
:101080008F917F916F915F914F913F912F910F9031
:101090000BBE0F900FBE0F901F9018954F925F924E
:1010A0006F927F928F929F92AF92BF92CF92DF9278
:1010B000EF92FF920F931F93CF93DF9300D01F9275
:1010C000CDB7DEB78C01DC014D905D906D907C90CA
:1010D000139714968D909D90AD90BC90179718968D
:1010E0008D919D910D90BC91A02D89839A83AB83A6
:1010F000BC83A3019201C301B2010E9435256B019B
:101100007C01A5019401C501B4010E9435259B0114
:10111000AC01C701B6010E9421236B017C0129812A
:101120003A814B815C81CA01B9010E9435259B013E
:10113000AC01C701B6010E9421230E94E8256B0182
:101140007C019B01AC01C301B2010E94EB23F801B9
:101150006083718382839383A7019601C501B401E3
:101160000E94EB23D80114966D937D938D939C93ED
:101170001797A701960169817A818B819C810E94D2
:10118000EB23F80160877187828793870F900F9018
:101190000F900F90DF91CF911F910F91FF90EF90E3
:1011A000DF90CF90BF90AF909F908F907F906F9087
:1011B0005F904F900895CF93DF93EC0186E0EAE0D3
:1011C000F2E0DE01529601900D928A95E1F786E0F9
:1011D000E0E1F2E0DE011C9601900D928A95E1F7C4
:1011E00084E090E09A8F898F1CA61BA61DA6DF9134
:1011F000CF910895CF92DF92EF92FF920F931F93BA
:10120000CF93DF936C017A018B01C0E0D0E0CE1563
:10121000DF0589F0D8016D918D01D601ED91FC912A
:101220000190F081E02DC6011995892B11F47E0102
:1012300002C02196ECCFC701DF91CF911F910F9192
:10124000FF90EF90DF90CF900895FC01918D828DFB
:10125000981761F0828DDF01A80FB11D5D968C910A
:10126000928D9F5F9F73928F90E008958FEF9FEF15
:101270000895FC01918D828D981731F0828DE80FD1
:10128000F11D858D90E008958FEF9FEF0895FC018B
:10129000918D228D892F90E0805C9F4F821B910958
:1012A0008F73992708958DE096E0F1DF21E0892B77
:1012B00009F420E0822F0895FC01848DDF01A80F3E
:1012C000B11DA35ABF4F2C91848D90E001968F736E
:1012D0009927848FA689B7892C93A089B1898C918D
:1012E00080648C93938D848D981306C00288F38953
:1012F000E02D80818F7D80830895EF92FF920F9380
:101300001F93CF93DF93EC0181E0888F9B8D8C8DB1
:10131000981305C0E889F989808185FD23C0F62EE0
:101320000B8D10E00F5F1F4F0F731127E02E8C8D78
:10133000E8120BC00FB607FCFACFE889F989808163
:1013400085FFF5CFCE01B8DFF2CF8B8DFE01E80F20
:10135000F11DE35AFF4FF0820B8FEA89FB898081F0
:10136000806207C0EE89FF896083E889F9898081FE
:101370008064808381E090E0DF91CF911F910F9195
:10138000FF90EF900895CF93DF93EC01888D882331
:10139000C1F0EA89FB89808185FD05C0A889B989EA
:1013A0008C9186FD0EC00FB607FCF5CF808185FFBE
:1013B000F2CFA889B9898C9185FFEDCFCE017CDF72
:1013C000E8CFDF91CF91089580E090E0892B19F06C
:1013D0006ADF811125C080E090E0892B41F080E038
:1013E00090E0892B21F00E94000081111CC080E058
:1013F00090E0892B41F080E090E0892B21F00E9461
:101400000000811113C080E090E0892BA1F080E002
:1014100090E0892B81F00E94000081110AC008959C
:101420000E940000D8CF0E940000E1CF0E9400007F
:10143000EACF0C9400000895DC015996ED91FC91DF
:101440005A973097B9F083899489A589B6894285DE
:10145000538564857585841B950BA60BB70B811589
:1014600020E89207A105B10538F08FEF9FE7A0E0D3
:10147000B0E0089580E090E00895CF93DF931F924D
:10148000CDB7DEB76983DC01ED91FC910280F38179
:10149000E02D41E050E0BE016F5F7F4F19950F9046
:1014A000DF91CF9108950E944A28FC01818D928D91
:1014B000009709F05BCB8FEF9FEF089580919A031F
:1014C000882399F14091000250910102609102023B
:1014D000709103022FE933E080919F059091A00560
:1014E0004DDC811102C080E0089540919B03509132
:1014F0009C0360919D0370919E0341155105610508
:10150000710589F02FE933E080919F059091A00546
:1015100035DC882341F310929B0310929C031092B8
:101520009D0310929E0310929A0381E008951F92EA
:101530000F920FB60F9211240BB60F922F933F9379
:101540004F935F936F937F938F939F93AF93BF93CB
:10155000EF93FF938DE096E0AFDEFF91EF91BF91A7
:10156000AF919F918F917F916F915F914F913F913B
:101570002F910F900BBE0F900FBE0F901F901895DC
:101580001F920F920FB60F9211240BB60F922F934A
:101590008F939F93EF93FF93E0911D06F0911E06AA
:1015A0008081E0912306F091240682FD12C0908193
:1015B000809126068F5F8F7320912706821751F046
:1015C000E0912606F0E0E35FF94F958F80932606C1
:1015D00001C08081FF91EF919F918F912F910F908A
:1015E0000BBE0F900FBE0F901F901895FC01DB01F2
:1015F00012968D919C911397938382838AE292E055
:101600009183808314968C911497848315968C9182
:101610001597858316964D915D916D917C911997E3
:1016200046835783608771871A964D915D916D91BE
:101630007C911D9742875387648775871E964D91CD
:101640005D916D917C91519746875787608B718B27
:1016500052968C915297828B53964D915D916D91DC
:101660007C915697438B548B658B768B57964D9117
:101670005D916D917C915A97478B508F618F728FDE
:101680005B968D919C915C97948F838F0895EF92D8
:10169000FF920F931F93CF93DF93EC017B018A019D
:1016A0001B821A8288EE93E0A0E0B0E08C839D83D9
:1016B000AE83BF8382E492E0998388838DE190E0DA
:1016C0000E941D279A8F898F009779F02DE1F701ED
:1016D000DC0101900D922A95E1F74CE050E0B80151
:1016E000CE010C960E945B28188EDF91CF911F913E
:1016F0000F91FF90EF9008958F929F92AF92BF92BB
:10170000EF92FF920F931F93CF934B015C01C42F75
:101710008091000290910102A0910202B091030217
:1017200088159905AA05BB05F1F0C8DE811102C034
:1017300080E01FC08FE9E82E83E0F82E00E012E081
:1017400020E030E0B501A40180919F059091A005B3
:1017500080D9882369F38092000290920102A092BE
:101760000202B092030280919A03C82BC0939A039D
:1017700081E0CF911F910F91FF90EF90BF90AF90BC
:101780009F908F9008954F925F926F927F928F9269
:101790009F92AF92BF92CF92DF92EF92FF920F9300
:1017A0001F93CF93DF93EC016A017B01280139017C
:1017B000423051056105710510F480E072C08985E1
:1017C0009A85AB85BC850196A11DB11D841795072F
:1017D000A607B70790F38B889C88AD88BE888F8951
:1017E000803129F4BB27AF2D9E2D8D2D09C0DB0143
:1017F000CA0147E0B695A795979587954A95D1F781
:10180000880E991EAA1EBB1E8091000290910102B3
:10181000A0910202B091030288169906AA06BB069F
:1018200079F48F89803199F4DD24EE24FF24C601F8
:10183000880F991FFC01E156FC4F5182408218C06D
:1018400040E0C501B40158DF8111EBCFB6CFE89479
:10185000C7F8DD24EE24FF24C601880F991F880FE6
:10186000991FFC01E156FC4F4082518262827382D3
:1018700080919A03816080939A038A89823080F0F4
:101880008D819E81AF81B885880E991EAA1EBB1ED0
:1018900080929B0390929C03A0929D03B0929E0322
:1018A00081E0DF91CF911F910F91FF90EF90DF903A
:1018B000CF90BF90AF909F908F907F906F905F90F0
:1018C0004F9008958F929F92AF92BF92CF92DF92E6
:1018D000EF92FF920F931F93CF93DF93FC018185CB
:1018E0009285A385B4850196A11DB11D8417950726
:1018F000A607B70710F480E05BC083899489A589A7
:10190000B689C789C03129F4852E962EA72EBB240F
:1019100009C04A015B01C7E0B694A79497948794E5
:10192000CA95D1F7E9016A017B018F01BC01CD01A4
:10193000680D791D8A1D9B1D809000029090010208
:10194000A0900202B0900302681579058A059B05F4
:1019500099F4F80187898031A1F4B701A6015527D0
:1019600066277727440F551FFA01E156FC4F808107
:101970009181A0E0B0E017C040E0BEDE8111E9CF68
:10198000BACFB701A6014F77552766277727440FAF
:10199000551F440F551FFA01E156FC4F808191817C
:1019A000A281B381BF7088839983AA83BB8381E0BE
:1019B000DF91CF911F910F91FF90EF90DF90CF902B
:1019C000BF90AF909F908F9008954F925F926F92CB
:1019D0007F92AF92BF92CF92DF92EF92FF920F93DE
:1019E0001F93CF93DF9300D01F92CDB7DEB78C014A
:1019F00049835A836B837C835901C12CD12C760196
:101A0000412C82E0582E612C712C49815A816B81C6
:101A10007C819E012F5F3F4FC80154DF882351F125
:101A2000D301C201F801058404C0880F991FAA1FC1
:101A3000BB1F0A94D2F7C80ED91EEA1EFB1E4981AD
:101A40005A816B817C818789803129F088EF9FEFF3
:101A5000AFEFBFE004C088EF9FEFA0E0B0E0481711
:101A600059076A077B0788F2F501C082D182E282BA
:101A7000F38281E00F900F900F900F90DF91CF9144
:101A80001F910F91FF90EF90DF90CF90BF90AF909C
:101A90007F906F905F904F9008954F925F926F92FA
:101AA0007F92AF92BF92CF92DF92EF92FF920F930D
:101AB0001F93CF93DF93CDB7DEB72B970FB6F89474
:101AC000DEBF0FBECDBF7C01CE0101966C01FC01D3
:101AD00090E28BE08C0D91938E13FDCFDA0130E014
:101AE00047E09D91992339F19E3219F0E8EBF1E03E
:101AF0000AC04A3009F46FC138E04AE0F2CF3196AB
:101B0000891709F468C184918111F9CF431708F44A
:101B100062C18FED890F8E3508F05DC181E0830FC2
:101B2000F601E30FF11D3FE9390F3A3108F4905205
:101B30009083382FD6CF8981803209F44CC1B22EE0
:101B40008B01DB015B968D919C915C97F701948FE3
:101B5000838F16961D921D921D921C921997FB0160
:101B60001286138614861586712CF801828593855A
:101B7000A485B58543895489658976898417950735
:101B8000A607B70708F061C025E0B695A795979519
:101B900087952A95D1F7F82FFF706F2ED8011596EB
:101BA0008C91823008F417C1C8010E94B60597FDD8
:101BB00012C1F80182859385A485B5854F96A11D34
:101BC000B11D82879387A487B587F0E26F9EC0011D
:101BD0001124BC0161567C4F6115710509F4FBC0ED
:101BE000DB012C91222319F0253EC1F427C071108E
:101BF0000EC0F701628A409100025091010260918B
:101C000002027091030246875787608B718BFC013B
:101C1000E156FC4F8081811113C015C04BE050E0AC
:101C2000C6010E944E28892B09F09FCF8B2D80730F
:101C3000803309F4D0C04B2D662DC9C07720C9F27E
:101C40007724739492CF772473948B2D8271823191
:101C500009F0C1C07720C9F0D7011E966D917D9122
:101C60008D919C91519741E047DD882309F4B3C0E1
:101C7000F7016289F0E26F9FB001112461567C4F39
:101C80006115710509F078C0A6C0D80115968C9130
:101C9000823009F4A0C0C8010E946903882309F4B6
:101CA0009AC0D8015B96ED91FC915C9716964D9089
:101CB0005D906D907C901997B2E04B1A51086108C5
:101CC0007108058404C0440C551C661C771C0A94DA
:101CD000D2F786859785A089B189480E591E6A1E5C
:101CE0007B1EA480E1E04E1A510861087108AA2009
:101CF00001F1E4DB882309F46EC0EFE9F3E011920F
:101D000025E0EF39F207D9F7D301C2018A0D911D01
:101D1000A11DB11D8093000290930102A0930202C5
:101D2000B093030280919A03816080939A03AA94EE
:101D3000DECFD8015B96ED91FC915C9780E092E05C
:101D4000A0E0B0E0058404C0880F991FAA1FBB1F44
:101D50000A94D2F7F8014389548965897689840FFA
:101D6000951FA61FB71F838B948BA58BB68BD701AE
:101D700052961C926FE973E080E2FB0111928A9502
:101D8000E9F78BE0F601DB0101900D928A95E1F70E
:101D900081E298E2DB0151969C938E93509720E06C
:101DA00038E01F963C932E931E9753969C938E93E8
:101DB000529759969C938E93589757963C932E938F
:101DC00056977CDB882339F04B2DF7016289C701D8
:101DD0000E94550201C080E02B960FB6F894DEBF3A
:101DE0000FBECDBFDF91CF911F910F91FF90EF906C
:101DF000DF90CF90BF90AF907F906F905F904F90AB
:101E00000895CF93DF93EC018D81882391F18C812C
:101E100087FF2CC06E857F858889998941E06CDCBD
:101E2000882339F1EA8980E2E89FF0011124DF017B
:101E3000A156BC4F1097E9F08D81823050F44B8948
:101E40005C896D897E895C964D935D936D937C93DF
:101E50005F978F89988DA98DBA8DE156FC4F938F2E
:101E6000828FB58BA48B8C818F778C83DF91CF9100
:101E700025CB80E0DF91CF910895FC01818D928D7B
:101E8000009709F0BECF08958F929F92AF92BF92B4
:101E9000CF92DF92EF92FF920F931F93CF93DF9336
:101EA000EC018D81811102C080E076C00B891C8914
:101EB0002D893E890417150726073707A8F36A01FD
:101EC0007B01823029F4CA86DB86EC86FD860DC054
:101ED000C114D104E104F10451F41E821F8218865A
:101EE00019861A861B861C861D8681E055C08A8449
:101EF0009B84AC84BD84EB8DFC8D258530E0275F11
:101F00003F4FB501A4014150510961097109022EE9
:101F100004C076956795579547950A94D2F7D701EF
:101F2000C6010197A109B10904C0B695A795979577
:101F300087952A95D2F784179507A607B70720F04B
:101F400089288A288B2849F44F89588D698D7A8D84
:101F50004E835F836887798704C0841B950BA60B2B
:101F6000B70B4C015D018E010A5F1F4F8114910474
:101F7000A104B10409F4A7CF4E815F8168857985FA
:101F800098018B8D9C8D9EDC91E0891A9108A108A7
:101F9000B1088111EBCF88CFDF91CF911F910F91C5
:101FA000FF90EF90DF90CF90BF90AF909F908F9079
:101FB00008950F931F93CF93DF93FC01818D928D32
:101FC0000097B1F0EF010E94B6058C010F3F8FEF33
:101FD000180789F0898D9A8DFC01428553856485A7
:101FE000758541505109610971094EDFC80105C06D
:101FF00080E090E002C08FEF9FEFDF91CF911F91C3
:102000000F9108952F923F924F925F926F927F921D
:102010008F929F92AF92BF92CF92DF92EF92FF92F8
:102020000F931F93CF93DF9300D01F92CDB7DEB7EE
:102030008C015B011A01DC0115968C91159781309A
:10204000C1F414968C9181FF14C082FF1AC0F8016C
:10205000438954896589768982859385A485B58568
:1020600084179507A607B70761F0C8010DDF811136
:1020700008C081E090E0F8019383828380E090E0E3
:1020800035C1610183C0D8015B968D919C915C97AD
:10209000FC01248121502A013B0139E076946794A8
:1020A000579447943A95D1F7722E74207A01F1E053
:1020B000FF22772009F476C080E092E08E199F0914
:1020C00046018C159D0508F44C01D8015B962D91B5
:1020D0003C915C9716968D919D910D90BC91A02D91
:1020E0000297A109B109F901058404C0880F991F5D
:1020F000AA1FBB1F0A94D2F746855785608971894C
:10210000840F951FA61FB71F9C01AD01270D311D20
:10211000411D511D29013A01811432E0930609F055
:1021200087C08091000290910102A0910202B091BB
:10213000030284159505A605B70559F48FEF9FEFA7
:10214000DC018093000290930102A0930202B093FD
:1021500003029501B301A20180919F059091A00512
:102160000E94BE06882309F484CF9EEFB91AC818CE
:10217000D908F80182859385A485B585880D991DB8
:10218000A11DB11D82879387A487B587D8011A96B0
:102190004D915D916D917C911D97C114D10409F011
:1021A00072CF84C0E114F10409F086CF16964D91E8
:1021B0005D916D917C9119974115510561057105EE
:1021C00059F457968D919D910D90BC91A02D00973B
:1021D000A105B10539F520C09E012F5F3F4F72DB8D
:1021E000882309F44CCF89819A81AB81BC81F801A5
:1021F000238D348DF9012789203129F048EF5FEFD5
:102200006FEF7FE004C048EF5FEF60E070E084179D
:102210009507A607B70730F0C8010E94690381112E
:102220004BCF27CFF80186839783A087B18744CF10
:10223000E114F10421F5D8011A964D915D916D914B
:102240007C911D9753968D919D910D90BC91A02DE1
:10225000481759076A077B0790F030D9882309F49B
:1022600008CF4092000250920102609202027092E6
:10227000030280919A03816080939A0307C041E032
:10228000C301B20139DA882309F4F3CED501F7018D
:10229000E156FC4FCF01880D991DE817F90719F099
:1022A0002D912193FACFA80CB91C61CF53968D9133
:1022B0009D910D90BC91A02D84179507A607B70797
:1022C00040F4F801438B548B658B768B8481806856
:1022D0008483D80114968C9183FD02C0C10106C08D
:1022E000C8018FDD882309F4C4CEF8CF0F900F907A
:1022F0000F900F90DF91CF911F910F91FF90EF9072
:10230000DF90CF90BF90AF909F908F907F906F9015
:102310005F904F903F902F900895CF93DF93EC0103
:10232000898D9A8D009739F481E090E09B838A83B0
:1023300080E090E00AC0FC011382128263DEE98D26
:10234000FA8D22813381232B79F7DF91CF91089584
:10235000CF93DF931F92CDB7DEB7698341E050E0A2
:10236000BE016F5F7F4F4EDE0F90DF91CF910895DA
:1023700020910C0690916407213208F04AC08091A8
:10238000E9058111FCCF32E03093E90531E030936B
:10239000E8053FEF3093E7051092E6052093E50549
:1023A000ACEEB5E045EC55E0FA013E2F341B321798
:1023B00018F43D913193F9CF1092C4052091C405D2
:1023C000990F922B9093C4059091C305913061F4BD
:1023D0001092C3059091C4059093BB009091BC00EE
:1023E00093FDF8CF95EC01C095EE9093BC009091D1
:1023F000E9059230E1F39091E7059F3F79F08091F4
:10240000E705803241F08091E705803331F084E0C8
:1024100005C081E003C082E001C083E01092EB05BB
:1024200010920C061092EA05089591E09093EA0547
:10243000809364071092EB0510920C06089590911A
:10244000E9059111FCCF613208F060E291E09093D0
:10245000E9059093E8052FEF2093E7051092E60534
:10246000260F2093E5059093C4059091C405880F2D
:10247000892B8093C4058091C305813061F410924B
:10248000C3058091C4058093BB008091BC0083FD8F
:10249000F8CF85EC01C085EE8093BC008091E90502
:1024A0008130E1F38091E605861710F46091E6052E
:1024B000A5ECB5E023EA35E0F9018E2F821B8617E3
:1024C00018F48D918193F9CF1092A2056093A10524
:1024D000862F0895009769F0FC0101900020E9F72C
:1024E0003197AF01481B590BBC018DE096E00C946D
:1024F000FA0880E090E00895CF93DF93EBDFEC01E2
:102500008CE393E0E7DF8C0F9D1FDF91CF9108955F
:10251000682F85EF96E00C942702CF93C82F85DFB4
:102520008FE090E0F5DF24DF61E08C2F88DF909171
:10253000A1058091A205981729F085EF96E0CF912B
:102540000C94AA018FEF9FEFCF9108958F929F92E5
:10255000AF92BF92CF92DF92EF92FF92CF93DF9331
:10256000C82F8AEA96E09093A00580939F05CC231C
:1025700061F1C53010F080E00BC140E060E070E038
:10258000CB01BAD88823B9F320E1C29FC00111243E
:1025900081579C4FFC01E254FE4F20812F7759F761
:1025A0003C964081518162817381443651056105B9
:1025B000710508F33497C080D180E280F380C114A4
:1025C000D104E104F10421F4D6CFC12CD12C760141
:1025D00040E0C701B60190D8882369F28091AA0330
:1025E0009091AB038115924031F6A091AF03AA23DD
:1025F00009F4C1CF6091AD037091AE03611571050F
:1026000009F4B9CF2091AC03222309F4B4CFA093ED
:10261000C8062093BA0680E030E0E1E0F0E0C82F81
:10262000AF01082E02C0440F551F0A94E2F7241789
:10263000350741F0982F8F5F983089F789E08093B4
:10264000C30699CF8093C3062091B5033091B6039A
:102650002115310519F040E050E008C02091C30376
:102660003091C4034091C5035091C6032093BB062B
:102670003093BC064093BD065093BE0646015701F9
:10268000860E971EA11CB11C8092C9069092CA06A4
:10269000A092CB06B092CC06E091B003F091B103CA
:1026A000F093CF06E093CE06B0E00E94D122860ED2
:1026B000971EA81EB91E8092D0069092D106A092B5
:1026C000D206B092D30685E0EE0FFF1F8A95E1F7A0
:1026D000E150FE4FEF2FFF27E6958E0E9F1EA11CA7
:1026E000B11C8092C4069092C506A092C606B09214
:1026F000C7062091B2033091B3032115310521F0B3
:10270000A90160E070E008C04091BF035091C00390
:102710006091C1037091C203D701C601881999095C
:10272000AA09BB09840F951FA61FB71F04C0B69541
:10273000A79597958795CA95D2F78093BF069093F2
:10274000C006A093C106B093C206853F2FE0920752
:10275000A105B10510F48CE018C0853F9F4FA1057D
:10276000B10510F480E111C08091CB039091CC03AE
:10277000A091CD03B091CE038093D0069093D10663
:10278000A093D206B093D30680E28093CD0681E079
:10279000DF91CF91FF90EF90DF90CF90BF90AF90FF
:1027A0009F908F90089590E0FC01EE5BFD4F249187
:1027B000FC01E450FE4F8491882399F090E0880F4B
:1027C000991FFC01EE51FE4FA591B491FC01E85315
:1027D000FE4F859194918FB7F894EC91E22BEC9396
:1027E0008FBF08954F925F926F927F928F929F92C8
:1027F000AF92BF92CF92DF92EF92FF920F931F930F
:10280000CF93DF93CDB7DEB7AA970FB6F894DEBFAC
:102810000FBECDBF8C01298F3A8F4B8F5C8F6D8F90
:102820007E8FDC011696CD90DC9017970D2C000C56
:10283000EE08FF0852966D917C915397AB01770F8C
:10284000660B770B1C968D919C911D97092E000CA1
:10285000AA0BBB0B2A013B01480E591E6A1E7B1EA8
:10286000C301B20122E0822E912CA12CB12CA50132
:1028700094010E94AD2226013701421A530A640ACC
:10288000750A4F8E58A269A27AA2D8011896CD90E7
:10289000DC9019970D2C000CEE08FF0854966D91F2
:1028A0007C915597AB01770F660B770B1E968D9138
:1028B0009C911F97092E000CAA0BBB0B2A013B0110
:1028C000480E591E6A1E7B1EC301B201A501940168
:1028D0000E94AD2226013701421A530A640A750A82
:1028E0004BA25CA26DA27EA2D8011A96CD90DC907C
:1028F0001B970D2C000CEE08FF0856966D917C91ED
:102900005797AB01770F660B770B50968D919C9183
:102910005197092E000CAA0BBB0B2A013B01480E54
:10292000591E6A1E7B1EC301B201A50194010E94BB
:10293000AD22C21AD30AE40AF50AD80114964D90C2
:102940005C901597052C000C6608770812968D91FF
:102950009C9113974C01990FAA08BB088FA298A6C7
:10296000A9A6BAA62BA13CA14DA15EA1C301B201AB
:102970000E948B224B015C01A70196016FA178A5F3
:1029800089A59AA50E948B22A5019401261B370BCD
:10299000480B590BCA01B9010E9455246D877E87E7
:1029A0008F87988BD8018D909C90092C000CAA08D9
:1029B000BB08A7019601C501B4010E948B226B01DF
:1029C0007C012F8D38A149A15AA1C301B2010E94F7
:1029D0008B2226013701461A570A680A790AC30171
:1029E000B2010E945524698B7A8B8B8B9C8B2F8D27
:1029F00038A149A15AA16FA178A589A59AA50E94DD
:102A00008B226B017C012BA13CA14DA15EA1C501D4
:102A1000B4010E948B2236014701661A770A880AA0
:102A2000990AC401B3010E9455246D8B7E8B8F8B54
:102A3000988FCE010D960E944E08D80112966D9186
:102A40007C911397072E000C880B990B0E9455243C
:102A50006B017C014D885E886F88788C4F8E58A200
:102A600069A27AA2D80114966D917C911597072ED0
:102A7000000C880B990B0E9455242B013C0189887E
:102A80009A88AB88BC888BA29CA2ADA2BEA22F8DD7
:102A900038A149A15AA1C701B6010E9435254B01B1
:102AA0005C012BA13CA14DA15EA1C301B2010E941A
:102AB00035259B01AC01C501B4010E942023698327
:102AC0007A838B839C838D849E84AF84B8888FA205
:102AD00098A6A9A6BAA6D8016D917C91072E000CE4
:102AE000880B990B0E9455244B015C012FA138A53E
:102AF00049A55AA5C301B2010E9435252B013C010D
:102B00002F8D38A149A15AA1C501B4010E943525D4
:102B10009B01AC01C301B2010E9420236D837E831F
:102B20008F8398872BA13CA14DA15EA1C501B40163
:102B30000E9435254B015C012FA138A549A55AA556
:102B4000C701B6010E9435259B01AC01C501B40146
:102B50000E94202369877A878B879C87CE01019604
:102B60000E944E08698D7A8D072E000C880B990BF8
:102B70000E9455242B013C016B8D7C8D072E000C8F
:102B8000880B990B0E9455244B015C016D8D7E8D45
:102B9000072E000C880B990B0E9455246B017C01B9
:102BA00029813A814B815C81C301B2010E943525A4
:102BB0006F8F78A389A39AA32D813E814F81588579
:102BC000C501B4010E9435259B01AC016F8D78A130
:102BD00089A19AA10E9421236F8F78A389A39AA328
:102BE00029853A854B855C85C701B6010E9435254C
:102BF0009B01AC016F8D78A189A19AA10E9421232C
:102C00006F8F78A389A39AA32D853E854F85588918
:102C1000C301B2010E9435252B013C0129893A8963
:102C20004B895C89C501B4010E9435259B01AC012B
:102C3000C301B2010E9421234B015C012D893E8911
:102C40004F89588DC701B6010E9435259B01AC0103
:102C5000C501B4010E9421232F8D38A149A15AA199
:102C60000E94942320E030E044E353E40E943525A1
:102C70002BED3FE049E450E40E94EB236B017C0123
:102C800020E030E0A9010E94E72387FF0AC020E08E
:102C900030E044EB53E4C701B6010E9421236B01ED
:102CA0007C01C701B601AA960FB6F894DEBF0FBE2D
:102CB000CDBFDF91CF911F910F91FF90EF90DF90EB
:102CC000CF90BF90AF909F908F907F906F905F90CC
:102CD0004F900895362F90E0FC01E857FD4F449146
:102CE000FC01EE5BFD4F2491FC01E450FE4F9491FA
:102CF000992309F46BC0442309F455C050E0FA014C
:102D00003197E231F10508F04EC08827EE58FF4FA9
:102D10008F4F0C94C922809180008F7707C08091DB
:102D200080008F7D03C080918000877F809380002A
:102D30003AC084B58F7702C084B58F7D84BD33C01F
:102D40008091B0008F7703C08091B0008F7D809319
:102D5000B00029C0809190008F7707C080919000CB
:102D60008F7D03C080919000877F809390001BC06F
:102D70008091A0008F7707C08091A0008F7D03C055
:102D80008091A000877F8093A0000DC080912001DA
:102D90008F7707C0809120018F7D03C08091200133
:102DA000877F80932001E92FF0E0EE0FFF1FE853AB
:102DB000FE4FA591B4918FB7F894EC91311103C0F7
:102DC00020952E2301C02E2B2C938FBF08953FB743
:102DD000F89480916A0790916B07A0916C07B0916D
:102DE0006D0726B5A89B05C02F3F19F00196A11DC0
:102DF000B11D3FBFBA2FA92F982F8827820F911D91
:102E0000A11DB11DBC01CD0142E0660F771F881FD7
:102E1000991F4A95D1F708952FB7F89460916607E6
:102E20007091670780916807909169072FBF089597
:102E3000BF92CF92DF92EF92FF920F931F93CF93A7
:102E4000DF9380912507F1DA88EA90E061DB90DA80
:102E500066E080912507F3DADFDF7B018091A10531
:102E600090E02091A205821B91090697A4F480911D
:102E7000260790912707892B89F3CEDF6E197F09EA
:102E800080912607909127078617970738F781E0EA
:102E90008093280733C085EF96E00E94AA01C82ED0
:102EA00085EF96E00E94AA01B82E85EF96E00E9479
:102EB000AA01E82E85EF96E00E94AA01D82E85EFA0
:102EC00096E00E94AA01F82E85EF96E00E94AA01E2
:102ED0001B2D00E00C2910931D0700931C07DD2D0E
:102EE00020E0C22FCE29D0931F07C0931E07982F32
:102EF00088278F299093210780932007DF91CF9116
:102F00001F910F91FF90EF90DF90CF90BF900895A9
:102F10001F920F920FB60F9211242F933F938F930E
:102F20009F93AF93BF938091660790916707A0919D
:102F30006807B09169073091650723E0230F2D37AB
:102F400020F40196A11DB11D05C026E8230F0296AD
:102F5000A11DB11D209365078093660790936707B5
:102F6000A0936807B093690780916A0790916B07F7
:102F7000A0916C07B0916D070196A11DB11D8093C2
:102F80006A0790936B07A0936C07B0936D07BF918E
:102F9000AF919F918F913F912F910F900FBE0F9006
:102FA0001F901895CF93DF93CDB7DEB7CA5DD109D7
:102FB0000FB6F894DEBF0FBECDBF789484B58260A3
:102FC00084BD84B5816084BD85B5826085BD85B5CD
:102FD000816085BD80916E00816080936E0010924B
:102FE00081008091810082608093810080918100C6
:102FF0008160809381008091800081608093800057
:103000008091B10084608093B1008091B0008160B4
:103010008093B000809191008260809391008091B4
:1030200091008160809391008091900081608093F5
:1030300090008091A10082608093A1008091A10006
:1030400081608093A1008091A00081608093A000A6
:103050008091210182608093210180912101816012
:1030600080932101809120018160809320018091D3
:103070007A00846080937A0080917A0082608093E5
:103080007A0080917A00816080937A0080917A0042
:10309000806880937A001092C100E0911D06F09143
:1030A0001E0682E08083E0911906F0911A061082D4
:1030B000E0911B06F0911C068FEC80831092250690
:1030C000E0912106F091220686E08083E0911F06C0
:1030D000F0912006808180618083E0911F06F0914D
:1030E0002006808188608083E0911F06F091200691
:1030F000808180688083E0911F06F09120068081A6
:103100008F7D80831092A2051092A1051092EB058D
:1031100010920C061092E90581E08093E805109268
:10312000C30561E084E1D6DD61E085E1D3DD809116
:10313000B9008E7F8093B9008091B9008D7F809314
:10314000B90088E48093B80085E48093BC0086E6EB
:1031500092E0C0D985E327DB1092B5061092B30642
:103160001092B0061092AF0685E38093AE0654DE4F
:103170008B018091AE0617DB61E08091AE06AADD7F
:10318000BFB6F89480914003811120C0E1E3F2E0E2
:103190008491E7E7F2E09491E82FF0E0EE0FFF1F53
:1031A000EE51FE4FA591B491EC91E92319F461E041
:1031B00085E390DD85E3F7DA8CB580618CBD8CB555
:1031C00080648CBD84E3EFDA83E3EDDA8091400321
:1031D0008F5F80934003BFBE82E58093F306109219
:1031E000F4068091F3069091F4060E94B6042AE05A
:1031F000B22E8FEF0E947B04BA94B110FACF8AEA04
:1032000096E00E94B90420E030E0A90160E08AEA7B
:1032100096E00E94CE04B82E8093B40631E0831766
:1032200041F0FADD601B710B613D774060F381E096
:1032300055C02AEA31E040E050E068E08AEA96E0D2
:103240000E94CE0482FF03C0B092B50610C094E085
:10325000B92E0E9482048093B406BA94B110F9CFBB
:103260008A3A11F082E03AC082E08093B5068091FC
:10327000B506823021F0812C912C540105C0812C9F
:10328000912CA12C80E4B82E20E030E0A90167E366
:103290008AEA96E00E94CE04A501940169E28AEAD6
:1032A00096E00E94CE048093B406882341F0B4DDFA
:1032B000601B710B613D774038F388E00FC080914F
:1032C000B506823001F520E030E0A9016AE38AEA20
:1032D00096E00E94CE04882341F086E08093AF06FA
:1032E0008AEA96E00E94700497C00E948204807C63
:1032F000803C19F483E08093B5060E9482040E940A
:1033000082040E9482048AEA96E00E94700480E5AA
:103310008093F3061092F40681E018D9882329F0EF
:103320008091D906882339F077C080E00FD98823AF
:1033300009F472C0F5CF8091CD06803109F582E0A5
:103340008093D9061092EB061092EC061092ED06CF
:103350001092EE068091CE069091CF06A0E0B0E0EC
:1033600015E0880F991FAA1FBB1F1A95D1F78093EC
:10337000E7069093E806A093E906B093EA061EC01C
:10338000803209F049C083E08093D9064091D0068D
:103390005091D1066091D2067091D3064093EB060E
:1033A0005093EC066093ED067093EE0627EE36E040
:1033B00086EB96E00E94E50C882371F186EB96E09F
:1033C0009093F0068093EF0681E08093D8061092E8
:1033D000DA061092DB061092DC061092DD061092DF
:1033E000DE061092DF061092E0061092E1061092BF
:1033F000E2061092E3061092E4061092E50610929F
:10340000E6068EE792E078D88DE58093590785D857
:103410008D3B910529F40EC080E992E06DD8FFCF75
:103420008B3B910589F08CE58093590776D88D3BCD
:10343000910539F481E090E0909358078093570705
:1034400007C08B3B9105C9F510925807109257079A
:103450008091570790915807009761F523E230E07B
:1034600030935D0720935C0724E230E030935F07E0
:1034700020935E0725E230E03093610720936007D8
:1034800026E230E030936307209362078130910594
:1034900011F480EB03C0892B19F480EE0E94722294
:1034A0008BE60E9452228F3F5FEF950701F121E0EA
:1034B00030E02EC08130910521F08CEA92E01CD8DA
:1034C00015C024E230E030935D0720935C0725E2CD
:1034D00030E030935F0720935E0720E330E03093C5
:1034E00061072093600721E330E0CCCFFFCF8AE66D
:1034F000D9D78F3F4FEF940749F489E6D3D7833D5F
:10350000910509F0B4C621E030E043C020E030E08E
:10351000873D910571F181E090E0909324078093BD
:103520002307AC01415051094230510538F4213094
:10353000310511F02AE608C02BE606C0213031051E
:1035400011F028E601C029E620932507029719F417
:1035500060E089E319D760E083E216D76FE680E286
:1035600013D76FE070E08DE12CD78934910521F4F9
:1035700013C082E090E0D1CF6FE070E08EE121D700
:103580008934910509F046C620E030E007C020E00C
:1035900030E080E090E0C1CF21E030E083E090E0D7
:1035A00090934307809342078230910539F529E1D2
:1035B000209344072EE12093450723E030E0309329
:1035C00049072093480724E030E030934B072093CD
:1035D0004A0727E030E030934D0720934C0728E05E
:1035E00030E030934F0720934E0725E030E03093D2
:1035F00051072093500726E030E031C08330910519
:1036000099F18130910509F45EC02130310509F44A
:1036100060C028E1209344072EE12093450723E072
:1036200030E0309349072093480724E030E030939E
:103630004B0720934A0725E030E030934D07209355
:103640004C0726E030E030934F0720934E0727E0E9
:1036500030E0309351072093500728E030E030935A
:1036600053072093520737C02130310511F02EE166
:1036700001C02DE1209345072093440728E030E066
:1036800030934B0720934A0729E030E030934907F5
:10369000209348072AE030E030934F0720934E07ED
:1036A0002BE030E030934D0720934C072CE030E0C6
:1036B00030935307209352072DE030E030935107A9
:1036C0002093500708C02130310509F470CF28E15C
:1036D0006FCF29E19FCF8330910581F460E081E2D3
:1036E000D6D667E580E2D3D664E684E2D0D660E23F
:1036F00085E2CDD660E086E2CAD616C0029729F4EC
:1037000068E083E2A7D667E404C060E083E2A2D663
:1037100067E280E29FD66CE080E07FD660E281E0E5
:103720007CD660E082E079D664ED76E0CE01019649
:103730000E94F60ABE016F5F7F4FCE018B569F4FEE
:103740000E94F60AE9961FAE1EAEE9978AE292E061
:10375000E7969FAF8EAFE797EB961FAEEB97C656F7
:10376000DF4F8881CA59D04081111EC0CC54DF4F31
:1037700019821882C45BD04088EE93E0A0E0B0E0EC
:10378000CA54DF4F88839983AA83BB83C65BD0402A
:10379000C553DF4F19821882CB5CD040C254DF4F33
:1037A0001882CE5BD0403DC0825023E142ED52E012
:1037B000823050F464ED76E0CE018B589F4F0E942A
:1037C0004D0D811110C0D2CFBE016B567F4FCE017F
:1037D0008B589F4F0E944D0D882341F2CE018B568E
:1037E0009F4F0E945D03C857DF4F488159816A810E
:1037F0007B81C858D040CE018B589F4F0E94440F08
:10380000BE016B587F4FCE0101960E94F60A42ED31
:1038100052E0BE016F5F7F4FCE018E549F4F0E94DA
:10382000470BCC54DF4F88819981C45BD040909383
:10383000040780930307CA54DF4F88819981AA81C6
:10384000BB81C65BD0408093050790930607A09389
:103850000707B0930807C654DF4F88819981AA8172
:10386000BB81CA5BD0408093090790930A07A0935D
:103870000B07B0930C078DE0E2EBF0E0EC0FFD1FBF
:103880003C96ADE0B7E001900D928A95E1F7C55303
:10389000DF4F88819981CB5CD04090931B07809348
:1038A0001A0704EF11E0C4DA80911C0790911D07FC
:1038B000E80EF91E01501109B1F7C70164EF71E07C
:1038C00039D6709346036093450304EF11E0B0DAF4
:1038D00080911E0790911F07C80ED91E0150110933
:1038E000B1F7C60164EF71E025D670934803609389
:1038F00047039EDA809144070E94151288EA90E0FF
:103900000E9488120E94B8118093410766E080915E
:1039100044070E941F1280DA8B018091A10590E07C
:103920002091A205821B91090697A4F48091540767
:1039300090915507892B89F36FDA601B710B809189
:103940005407909155078617970738F781E08093C1
:1039500056074EC085EF96E00E94AA01E82E85EF3B
:1039600096E00E94AA01D82E85EF96E00E94AA0157
:10397000082F85EF96E00E94AA01F82E85EF96E0C9
:103980000E94AA01182F85EF96E00E94AA01CA5250
:10399000DF4FD882C65DD040CB52DF4F1882C55D65
:1039A000D040CB52DF4F28813981C55DD0402E29D0
:1039B00030932A0720932907C852DF4FF882C85D49
:1039C000D040C952DF4F1882C75DD040C952DF4F87
:1039D00028813981C75DD040202B30932C0720935C
:1039E0002B07982F8827812B90932E0780932D07E4
:1039F000809145070E9415128091420790914307DC
:103A0000039731F480914A0790914B07806804C076
:103A100080914807909149070E9488120E94B8112E
:103A20008093410766E0809145070E941F12F4D9F8
:103A30008B018091A10590E02091A205821B910944
:103A40000697A4F48091540790915507892B89F328
:103A5000E3D9601B710B809154079091550786172D
:103A6000970738F781E08093560774C0809142072A
:103A7000909143070397F9F485EF96E00E94AA011D
:103A8000F82E85EF96E00E94AA01C82E85EF96E0F9
:103A90000E94AA01082F85EF96E00E94AA01E82E55
:103AA00085EF96E00E94AA01182F85EF96E00E940C
:103AB000AA01D82E39C085EF96E00E94AA01C82E2F
:103AC00085EF96E00E94AA01F82E8091420790911E
:103AD0004307892BA9F485EF96E00E94AA01E82EFE
:103AE00085EF96E00E94AA01082F85EF96E00E94DC
:103AF000AA01D82E85EF96E00E94AA01182F14C0C3
:103B000085EF96E00E94AA01D82E85EF96E00E94EC
:103B1000AA01182F85EF96E00E94AA01E82E85EFF2
:103B200096E00E94AA01082F2F2D30E03C29309307
:103B3000300720932F07202F30E03E2930933207A3
:103B400020933107212F30E0C9019D29909334073C
:103B50008093330782E090E09E838D838DE58F8391
:103B6000CE0142960E94DB0883E090E029969FAF49
:103B70008EAF29972C961FAE1EAE2C972D961FAE9A
:103B80002D97809159070E94151288EA90E00E94B3
:103B900088120E94B81163E0809159070E941F1299
:103BA0008091A10590E02091A205821B91098330AC
:103BB0009105ECF385EF96E00E94AA01082F85EFAE
:103BC00096E00E94AA01182F85EF96E00E94AA01B4
:103BD000482F880F550B660B770BBA0155274427E2
:103BE000402BC652DF4F1883CA5DD040C752DF4F0B
:103BF0001882C95DD040C752DF4F08811981C95D65
:103C0000D040C801A0E0B0E08A019B01082B192B2D
:103C10002A2B3B2BC901B80148D620E030E040E810
:103C200059E323D723ED3EE54FEE51E4D4D52EE4FE
:103C300034ED42E45EE37CD79B01AC0160E070E0D0
:103C400080E89FE3FDD420E838E04EE058E40DD74B
:103C500061966CAF7DAF8EAF9FAF619765961CAEDE
:103C60001DAE1EAE1FAE659780914207909143072F
:103C7000039731F581E0282FCB56DF4F8883C55954
:103C8000D040CA56DF4F1882C659D040C956DF4FC0
:103C900019821882C759D040C756DF4F198218823F
:103CA000C959D04030E040E0C856DF4F5881C8596C
:103CB000D04060E0C656DF4F7881CA59D04025C059
:103CC000CE54DF4F19821882C25BD0408FEF482F4D
:103CD000CC54DF4F8883C45BD040CB54DF4F888304
:103CE000C55BD040CA54DF4F19821882C65BD040F2
:103CF00020E0CD54DF4F3881C35BD0405FEF60E000
:103D0000C954DF4F7881C75BD04089E297E00E94B9
:103D1000F213A9966CAF7DAF8EAF9FAFA99760915C
:103D2000290770912A0744E0759567954A95E1F750
:103D300077FF02C061507F4F672F770F770B072EF9
:103D4000000C880B990BB1D56B017C01AD966CAF63
:103D50007DAF8EAF9FAFAD9760912B0770912C0711
:103D600034E0759567953A95E1F777FF02C06150A9
:103D70007F4F672F770F770B072E000C880B990B5F
:103D800094D54B015C01E1966CAF7DAF8EAF9FAFD8
:103D9000E197E596CCAEDDAEEEAEFFAEE597699667
:103DA0001CAE1DAE1EAE1FAE69976D961CAE1DAE4D
:103DB0001EAE1FAE6D97A7019601C701B60155D67D
:103DC0002B013C01A5019401C501B4014ED6A3010C
:103DD000920137D4FDD69B01AC01C701B601FBD4DB
:103DE000CED420E030E044E353E43FD62BED3FE077
:103DF00049E450E4F0D4A1966CAF7DAF8EAF9FAF95
:103E0000A197A3019201C301B2011BD4E1D69B018A
:103E1000AC01C501B401DFD4B2D420E030E044E30A
:103E200053E423D62BED3FE049E450E4D4D4A596E7
:103E30006CAF7DAF8EAF9FAFA59719821A821B82A0
:103E40001C828DE0E7E5F7E0DE01159601900D920A
:103E50008A95E1F78EE2E9E2F7E0DE015296019001
:103E60000D928A95E1F70E940C172B013C016983A2
:103E70007A838B839C8361962CAD3DAD4EAD5FAD57
:103E80006197C353DF4F288339834A835B83CD5CBB
:103E9000D04080914D0390914E03A0914F03B0917B
:103EA000500393018201081B190B2A0B3B0BC9011C
:103EB000B801F9D46B017C012091490330914A0388
:103EC00040914B0350914C03C353DF4F688179817C
:103ED0008A819B81CD5CD040B3D3A70196017BD46E
:103EE000CF52DF4F688379838A839B83C15DD04043
:103EF00065966CAF7DAF8EAF9FAF659722968EAD06
:103F00009FAD22972091450330914603821B930B6E
:103F100024E630E0B9010ED31B0124968EAD9FAD8F
:103F200024974091470350914803841B950BB90196
:103F300001D38B016091430370914403620D731DA3
:103F4000072E000C880B990BB0D4A70196018DD5D4
:103F500020E030E04AEF54E43ED469962CAD3DAD0C
:103F60004EAD5FAD69976DD34B015C0169966CAF47
:103F70007DAF8EAF9FAF699760914103709142030F
:103F8000600F711F072E000C880B990B8ED4A701B0
:103F900096016BD520E030E04AEF54E41CD46D96D6
:103FA0002CAD3DAD4EAD5FAD6D974BD36B017C013C
:103FB0006D966CAF7DAF8EAF9FAF6D97309244031F
:103FC00020924303109342030093410320E030E02A
:103FD000A901C501B401FBD320E030E044EB53E478
:103FE00087FF04C0C501B4012CD30CC0C501B401C6
:103FF00031D587FD0DC020E030E044EB53E4C5012E
:10400000B4011ED369966CAF7DAF8EAF9FAF699739
:1040100020E030E0A901C701B601D9D320E030E0AB
:1040200044EB53E487FF04C0C701B6010AD30CC0B8
:10403000C701B6010FD587FD0DC020E030E044EB8D
:1040400053E4C701B601FCD26D966CAF7DAF8EAF65
:104050009FAF6D972CEE31E548E75FE369966CAD55
:104060007DAD8EAD9FAD699700D56B017C0120E8D9
:1040700032EC45EF5CE3A1966CAD7DAD8EAD9FADAE
:10408000A197F3D49B01AC01C701B601DAD26B0151
:104090007C0169966CAF7DAF8EAF9FAF69972CEEB8
:1040A00031E548E75FE36D966CAD7DAD8EAD9FADBC
:1040B0006D97DBD44B015C0120E832EC45EF5CE30B
:1040C000A5966CAD7DAD8EAD9FADA597CED49B0171
:1040D000AC01C501B401B5D26D966CAF7DAF8EAFAA
:1040E0009FAF6D9740924D0350924E0360924F03E5
:1040F00070925003C353DF4F288139814A815B811D
:10410000CD5CD0402093490330934A0340934B0346
:1041100050934C03E9962CAF3DAF4EAF5FAFE9979C
:10412000CF52DF4F088119812A813B81C15DD04088
:10413000ED960CAF1DAF2EAF3FAFED97C358DF4FDD
:10414000C882D982EA82FB82CD57D040CF57DF4F59
:10415000688379838A839B83C158D040AD968CADA8
:104160009DADAEADBFADAD97C757DF4F8883998387
:10417000AA83BB83C958D040E1968CAD9DADAEAD4E
:10418000BFADE197C357DF4F88839983AA83BB8371
:10419000CD58D040E5968CAD9DADAEADBFADE597A9
:1041A000CF56DF4F88839983AA83BB83C159D04000
:1041B00040E250E0BE016B587F4F81E097E00E94E3
:1041C0008D110E94E7164B015C0182E3C82ED12CB1
:1041D000E12CF12C0E94E716DC01CB01881999092A
:1041E000AA09BB09883E9340A105B10558F011E02A
:1041F000C11AD108E108F10828EE820E23E0921ED0
:10420000A11CB11CC114D104E104F10419F70E94EE
:10421000E4096FCB60E270E089E1D3D0019659F0F8
:104220006FE070E08EE1CDD021E030E0CC97B9F0C6
:1042300080E090E0B5C960E270E088E1C2D001960C
:1042400089F06FE070E08EE1BCD031E020E0CC97E7
:1042500009F030E0832F922F20E030E0A1C982E006
:1042600090E09EC980E093E00E947C12FFCF88E638
:1042700019D1833D910509F48AC98EED92E00E941F
:104280007C12FFCFCF92DF92EF92FF92EDE0F6E04B
:104290001382128288EEC82E83E0D82EE12CF12CF6
:1042A000C482D582E682F7828AE192E0918380839C
:1042B00085EC90E09587848784EC90E097878687EB
:1042C00080EC90E0918B808B81EC90E0938B828BE3
:1042D00082EC90E0958B848B86EC90E0978B868BBC
:1042E000118E128E138E148EEAEAF6E01582168273
:1042F0001186138682E090E0A0E0B0E08487958785
:10430000A687B78713A215A614A68AE292E093A700
:1043100082A717A6E3EFF6E080E580831182E5EF40
:10432000F6E013821282C482D582E682F78282E3AB
:1043300092E091838083E7E5F7E082E090E091836B
:1043400080838DE5828389E297E00E94DB08ECE1BF
:10435000F7E083E090E090878783138612861486C7
:10436000E1E0F7E013821282C482D582E682F7820E
:1043700082E492E091838083128E118E1486FF90E6
:10438000EF90DF90CF9008950F931F93CF93DF931B
:10439000082F162FCCE1D7E089850E941512602FD7
:1043A00085EF96E00E942702612F85EF96E00E943C
:1043B00027020E94B8118E83DF91CF911F910F9138
:1043C00008951F93CF93DF931F92CDB7DEB7182FB9
:1043D00069830E941512698185EF96E00E94270289
:1043E0000E94B811811112C061E0812F0E941F123A
:1043F0009091A1058091A205981741F085EF96E074
:104400000F90DF91CF911F910C94AA018FEF9FEF36
:104410000F90DF91CF911F9108950F931F93CF932A
:10442000DF93082F162FC9E2D7E08C8D0E9415125A
:10443000602F85EF96E00E942702612F85EF96E0BE
:104440000E9427020E94B811888FDF91CF911F919F
:104450000F9108950F931F93CF93DF93082F162F7B
:10446000C9E2D7E08B8D0E941512602F85EF96E090
:104470000E942702612F85EF96E00E9427020E948A
:10448000B811888FDF91CF911F910F9108952091DE
:104490004207309143072330310511F0803208F490
:1044A000BCCFD8CFCF93C82F0E9415126FE085EFF5
:1044B00096E00E9427020E94B81181110FC061E0AE
:1044C0008C2F0E941F129091A1058091A205981730
:1044D00029F085EF96E0CF910C94AA018FEF9FEF22
:1044E000CF910895CF93DF931F92CDB7DEB7682F9A
:1044F0008091590769830E94151280E290E00E9422
:104500008812698185EF96E00E9427020F90DF9163
:10451000CF910C94B811DB018F939F9342D0BF9140
:10452000AF91A29F800D911DA39F900DB29F900D02
:104530001124089597FB072E16F4009406D077FDFA
:1045400008D039D007FC05D03EF4909581959F4F57
:104550000895709561957F4F0895052E97FB16F489
:1045600000940FD057FD05D03AD007FC02D046F496
:1045700008C050954095309521953F4F4F4F5F4F64
:10458000089590958095709561957F4F8F4F9F4FBF
:104590000895EE0FFF1F881F8BBF0790F691E02D47
:1045A00019943FD0A59F900DB49F900DA49F800DAE
:1045B000911D11240895AA1BBB1B51E107C0AA1F1E
:1045C000BB1FA617B70710F0A61BB70B881F991FB4
:1045D0005A95A9F780959095BC01CD010895A1E267
:1045E0001A2EAA1BBB1BFD010DC0AA1FBB1FEE1F6D
:1045F000FF1FA217B307E407F50720F0A21BB30BB8
:10460000E40BF50B661F771F881F991F1A9469F733
:1046100060957095809590959B01AC01BD01CF018F
:104620000895A29FB001B39FC001A39F700D811D8B
:104630001124911DB29F700D811D1124911D0895AB
:104640005058BB27AA270ED0CBC1BCD130F0C1D166
:1046500020F031F49F3F11F41EF48CC10EF4E0956C
:10466000E7FB82C1E92FCDD180F3BA176207730748
:104670008407950718F071F49EF5E5C10EF4E095F6
:104680000B2EBA2FA02D0B01B90190010C01CA010C
:10469000A0011124FF27591B99F0593F50F4503EB7
:1046A00068F11A16F040A22F232F342F4427585FA9
:1046B000F3CF469537952795A795F0405395C9F7C1
:1046C0007EF41F16BA0B620B730B840BBAF0915079
:1046D000A1F0FF0FBB1F661F771F881FC2F70EC018
:1046E000BA0F621F731F841F48F4879577956795EB
:1046F000B795F7959E3F08F0B3CF9395880F08F0D4
:104700009927EE0F9795879508955CD158F080E82A
:1047100091E009F49EEF5DD128F040E851E059F4B2
:104720005EEF09C027C18FC1E92FE0786AD168F335
:10473000092E052AC1F3261737074807590738F00D
:104740000E2E07F8E02569F0E025E0640AC0EF636B
:1047500007F8009407FADB01B9019D01DC01CA01E9
:10476000AD01EF9347D03CD10AD05F91552331F092
:104770002BED3FE049E450FD49EC63CF0895DF9312
:10478000DD27B92FBF7740E85FE316161706480705
:104790005B0710F4D92F62D19F938F937F936F9310
:1047A00055D2E8E0F1E0E9D01BD12F913F914F9134
:1047B0005F9167D1DD2349F09058A2EA2AED3FE0EE
:1047C00049EC5FE3D0785D274DDFDF9109C1A8D0C8
:1047D00008F481E008950CD003C1FBD040F0F2D082
:1047E00030F021F45F3F19F0BFC051112DC1C2C09C
:1047F00008D198F39923C9F35523B1F3951B550BB1
:10480000BB27AA2762177307840738F09F5F5F4FA3
:10481000220F331F441FAA1FA9F333D00E2E3AF0E4
:10482000E0E830D091505040E695001CCAF729D0FE
:10483000FE2F27D0660F771F881FBB1F261737074D
:104840004807AB07B0E809F0BB0B802DBF01FF277D
:1048500093585F4F2AF09E3F510568F085C0F4C021
:104860005F3FECF3983EDCF3869577956795B795B7
:10487000F7959F5FC9F7880F911D9695879597F9D2
:104880000895E1E0660F771F881FBB1F621773074B
:104890008407BA0720F0621B730B840BBA0BEE1F60
:1048A00088F7E0950895E89409C097FB3EF4909549
:1048B0008095709561957F4F8F4F9F4F9923A9F0F9
:1048C000F92F96E9BB279395F69587957795679588
:1048D000B795F111F8CFFAF4BB0F11F460FF1BC0CC
:1048E0006F5F7F4F8F4F9F4F16C0882311F096E95F
:1048F00011C0772321F09EE8872F762F05C066230D
:1049000071F096E8862F70E060E02AF09A95660FC5
:10491000771F881FDAF7880F9695879597F908957E
:10492000990F0008550FAA0BE0E8FEEF16161706C0
:10493000E807F907C0F012161306E407F50798F028
:10494000621B730B840B950B39F40A2661F0232B41
:10495000242B252B21F408950A2609F4A140A695BD
:104960008FEF811D811D089597F99F6780E870E0A2
:1049700060E008959FEF80EC0895DF93CF931F933D
:104980000F93FF92EF92DF927B018C01689405C038
:10499000DA2EEF0176D0FE01E894A59125913591AC
:1049A00045915591AEF3EF015DDEFE019701A8013F
:1049B000DA9479F7DF90EF90FF900F911F91CF91EC
:1049C000DF91089500240A941616170618060906A2
:1049D000089500240A941216130614060506089575
:1049E000092E0394000C11F4882352F0BB0F40F4FD
:1049F000BF2B11F460FF04C06F5F7F4F8F4F9F4F3D
:104A0000089557FD9058440F551F59F05F3F71F0BE
:104A10004795880F97FB991F61F09F3F79F0879525
:104A20000895121613061406551FF2CF4695F1DFAE
:104A300008C0161617061806991FF1CF869571053E
:104A4000610508940895E894BB2766277727CB0172
:104A500097F9089565DF08F48FEF08959B01AC0185
:104A600060E070E080E89FE3B6CE0BD0B9CFAADF5C
:104A700028F0AFDF18F0952309F076CF7BCF112413
:104A8000E3CFBFDFA0F3959FD1F3950F50E0551F03
:104A9000629FF001729FBB27F00DB11D639FAA2793
:104AA000F00DB11DAA1F649F6627B00DA11D661FE2
:104AB000829F2227B00DA11D621F739FB00DA11D03
:104AC000621F839FA00D611D221F749F3327A00DBD
:104AD000611D231F849F600D211D822F762F6A2F59
:104AE00011249F5750408AF0E1F088234AF0EE0FDE
:104AF000FF1FBB1F661F771F881F91505040A9F7EB
:104B00009E3F510570F030CF9FCF5F3FECF3983E52
:104B1000DCF3869577956795B795F795E7959F5F51
:104B2000C1F7FE2B880F911D9695879597F90895EB
:104B3000FA01EE0FFF1F30962105310599F161153D
:104B4000710561F48038BFE39B0749F168949038A0
:104B5000810561F08038BFEF9B0741F0992342F552
:104B6000FF3FE1053105210511F1E8940894E7952F
:104B7000D901AA2329F4AB2FBE2FF85FD0F310C0C0
:104B8000FF5F70F4A695E0F7F73950F019F0FF3A9F
:104B900038F49F779F930CD00F9007FC905808959E
:104BA0003EF0E8CE60E070E080E89FE308954FE7D4
:104BB0009F775F934F933F932F93CCD02F913F914B
:104BC0004F915F9152DF4AC011F40EF4D3CE72C000
:104BD00020DFD0F39923D9F3CEF39F57550B87FFEE
:104BE00077D00024A0E640EA90018058569597952A
:104BF00028F4805C660F771F881F20F02617370780
:104C0000480730F4621B730B840B202931294A2B8F
:104C1000A69517940794202531254A2758F7660F43
:104C2000771F881F20F026173707480730F4620BDC
:104C3000730B840B200D311D411DA09581F7B90127
:104C4000842F9158880F9695879508959B01AC0104
:104C50000CCF19F40EF088CEF6CE8CCEDADEC8F387
:104C60009638C0F707F80F92E8942BE33AEA48EB3E
:104C70005FE709DF0F920F920F924DB75EB70F9269
:104C8000A9D0E5E3F1E079DE4F915F91EF91FF91DB
:104C9000E595EE1FFF1F49F0FE57E0684427EE0F31
:104CA000441FFA95E1F74195550B1BD00F9007FE75
:104CB000D5CE08959F3F31F0915020F48795779598
:104CC0006795B795880F911D9695879597F90895E3
:104CD00091505040660F771F881FD2F7089544CE39
:104CE000E9CF97DEE8F39923D9F3940F511DBBF375
:104CF0009150504094F059F0882332F0660F771F9E
:104D0000881F91505040C1F79E3F510544F7880FCE
:104D1000911D9695879597F908955F3FACF0983E61
:104D20009CF0BB27869577956795B79508F4B16099
:104D30009395C1F7BB0F58F711F460FFE8CF6F5F91
:104D40007F4F8F4F9F4FE3CF7FCE0EF0B3CF12CE6A
:104D500068940ACE5EDEC8F39923D1F3C6F3DF93DD
:104D6000CF931F930F93FF92C92FDD2788232AF03B
:104D70002197660F771F881FDAF720E030E040E8C0
:104D80005FEB9FE3883920F0803E30F021968F77EB
:104D900058DCEDE5F1E003C054DCEAE8F1E0EDDDDC
:104DA0008B01BE01EC01FB2E6F5771097595771FC2
:104DB000880B990B7ADD28E132E741E35FE361DE9E
:104DC000AF2D9801AE01FF900F911F91CF91DF9110
:104DD00049DC06CEFA01DC01AA0FBB1F9B01AC0126
:104DE000BF5728F422273327442750781FC0B751D4
:104DF00088F4AB2F0024469537952795011CA39581
:104E0000D2F3002069F0220F331F441FB395DAF369
:104E10000DD016CC61307105A0E88A07B94630F490
:104E20009B01AC016627772788279078309621F080
:104E300020833183428353830895CF93DF9382305D
:104E4000910510F482E090E0E0917007F091710715
:104E500020E030E0C0E0D0E0309711F14081518196
:104E600048175907C0F04817590761F482819381A8
:104E7000209719F09B838A832BC0909371078093AE
:104E8000700726C02115310519F04217530718F491
:104E90009A01BE01DF01EF010280F381E02DDCCF3A
:104EA0002115310509F1281B390B2430310590F407
:104EB00012968D919C9113976115710521F0FB015C
:104EC0009383828304C09093710780937007FD01E0
:104ED000329644C0FD01E20FF31F8193919322505B
:104EE00031092D933C933AC020916E0730916F07A2
:104EF000232B41F4209106023091070230936F0773
:104F000020936E072091040230910502211531058E
:104F100041F42DB73EB74091080250910902241B7D
:104F2000350BE0916E07F0916F07E217F307A0F4DD
:104F30002E1B3F0B2817390778F0AC014E5F5F4FEF
:104F40002417350748F04E0F5F1F50936F074093AB
:104F50006E078193919302C0E0E0F0E0CF01DF9112
:104F6000CF9108950F931F93CF93DF93009709F488
:104F70008CC0FC013297138212820091700710914D
:104F800071070115110581F420813181820F931F72
:104F900020916E0730916F072817390779F5F09344
:104FA0006F07E0936E0771C0D80140E050E0AE1784
:104FB000BF0750F412962D913C911397AD01211526
:104FC000310509F1D901F3CF9D01DA013383228341
:104FD00060817181860F971F8217930769F4EC0136
:104FE00028813981260F371F2E5F3F4F3183208361
:104FF0008A819B8193838283452B29F4F0937107E7
:10500000E093700742C01396FC93EE931297ED0164
:10501000499159919E01240F351FE217F30771F44E
:1050200080819181840F951F029611969C938E9397
:105030008281938113969C938E931297E0E0F0E027
:10504000D80112968D919C911397009719F0F80151
:105050008C01F6CF8D919C9198012E5F3F4F820F6E
:10506000931F20916E0730916F072817390769F455
:10507000309729F4109271071092700702C01382C2
:10508000128210936F0700936E07DF91CF911F91EB
:105090000F91089581E090E0F8941CC0FB01DC01C1
:1050A00004C08D910190801921F441505040C8F7FF
:1050B000881B990B0895FB01DC014150504048F0DA
:1050C00001900D920020C9F701C01D92415050403F
:0850D000E0F70895F894FFCF0A
:1050D800FFFFFFFF00007207800001800180018050
:1050E800FF7FFF7FFF7F000000007D09FA08470966
:1050F80025093909C30900000000A811FA080000B1
:1051080000002702F801BE01AA019B019A010000D4
:1051180000003D0A8D111C0A550AD90F3D0F0000E9
:105128000000530AFA08530A530A530A530A0000A4
:105138000000530AFA08496E697469616C697A69F2
:105148006E6720534420636172642E2E2E006361C3
:10515800726420696E697469616C697A65642E008D
:1051680043617264206661696C65642C206F7220EB
:105178006E6F742070726573656E74004661696C39
:10518800656420746F206175746F646574656374F9
:105198002070726573737572652073656E736F72B4
:1051A8002100646174616C6F672E646174004661EC
:1051B800696C656420746F206175746F64657465CB
:1051C8006374206779726F2073656E736F72210044
:1051D8004661696C656420746F206175746F6465DD
:1051E80074656374206D61676E65746F6D65746551
:1051F8007220616E6420616363656C65726F6D65B2
:105208007465722073656E736F7221000D0A000059
:00000001FF
